S01E000047636F6465434E4344656D6F344178697352414D50532E737265637F
S113000022C2000051C200004FC200004DC20000D5
S11300104BC2000049C2000047C2000045C20000B4
S113002043C2000041C200003FC200003DC20000C4
S11300303BC2000039C2000037C2000035C20000D4
S113004033C2000031C200002FC200002DC20000E4
S11300502BC2000029C2000027C200000C94231305
S113006023C200000C945B100C9491101DC200007C
S11300701BC2000019C2000017C2000015C2000014
S113008013C2000011C200000FC200000DC2000024
S11300900BC2000009C2000007C2000005C2000034
S11300A003C2000001C20000FFC10000FDC1000046
S11300B0FBC10000F9C10000F7C10000F5C1000058
S11300C0F3C10000F1C10000EFC10000EDC1000068
S11300D0EBC10000E9C10000E7C10000E5C1000078
S11300E0E3C10000084AD73B3BCE016E84BCBFFD90
S11300F0C12F3D6C74319ABD56833DDA3D00C77FF4
S113010011BED9E4BB4C3E916BAAAABE000000808C
S11301103F05A84CCDB2D44EB93836A9020C50B91B
S1130120918688083CA6AAAA2ABE000000803F0047
S113013052145514441448144E148C1459145D1458
S1130140631467146B147114751479148C147F146C
S1130150831487144E414E494E495459494E46CD55
S1130160CCCC3D0AD7233C17B7D13877CC2B32956A
S113017095E6241FB14F0A000020410000C8420048
S1130180401C4620BCBE4CCA1B0E5AAEC59D740D05
S11301900A003E004E4F434845434B53554D200003
S11301A0424144434845434B53554D20004241444A
S11301B04C494E454E554D2000416C6C20636F6D8B
S11301C06D616E6473206D75737420656E64207741
S11301D06974682061206E65776C696E652E004DC8
S11301E03131343B202D207265706F727420706F32
S11301F0736974696F6E20616E64206665656472EC
S1130200617465004D3130303B202D207468697372
S11302102068656C70206D657373616765004D318E
S1130220383B202D2064697361626C65206D6F74A6
S11302306F727300473932205B582F592F5A2F455C
S1130240287374657073295D3B202D206368616E8B
S11302506765206C6F676963616C20706F73697484
S1130260696F6E004739313B202D2072656C6174D3
S1130270697665206D6F6465004739303B202D2019
S11302806162736F6C757465206D6F6465004730CF
S11302903420505B7365636F6E64735D3B202D2067
S11302A064656C6179004730302F473031205B58EA
S11302B02F592F5A2F45287374657073295D205B5D
S11302C046286665656472617465295D3B202D204E
S11302D06C696E656172206D6F766500436F6D6D3C
S11302E0616E64733A0047636F6465434E434465CB
S11302F06D6F36417869735632200073746570737C
S11303002F732E0073746570732F7320616E6420D5
S11303106C657373207468616E20004E6577206687
S113032065656472617465206D75737420626520FF
S113033067726561746572207468616E20000000E4
S11303400A0B02090C0D0E0807030401000000004B
S11303500000000000000000000000000000000099
S11303600000000000000000000012111000000056
S11303700000000000000000000000000000000079
S11303800000000001021020200808102040102066
S11303904080020102010804020101020408102045
S11303A04080804020100804020180040201804043
S11303B020100804020108040201010204081020AC
S11303C0408001020408102040800505050507054A
S11303D008080808020202020A0A080804040404BD
S11303E001010101010101010303030303030303E9
S11303F0040707070C0C0C0C0C0C0C0C0202020278
S113040006060606060606060B0B0B0B0B0B0B0B60
S113041000002200250028002B002E0031003400AB
S113042002010000050108010B0100002100240065
S113043027002A002D0030003300010100000401D0
S113044007010A01C31011241FBECFEFD1E2DEBFA2
S1130450CDBF00E00CBF12E0A0E0B2E0EAECFDE2A8
S113046000E00BBF02C007900D92A236B107D9F786
S113047023E0A2E6B2E001C01D92A83BB207E1F777
S113048012E0C3E2D2E000E006C021970109802F08
S1130490FE010E943A15C232D10780E00807A9F78D
S11304A00E94F1100C94E316ABCDCF92DF92EF9241
S11304B0FF9228EE33E040E050E00E941E156B01ED
S11304C07C01CA01B9010E949213C601FF90EF900A
S11304D0DF90CF900C94CB13CF92DF92EF92FF92E8
S11304E06B017C019B01AC0160917A0270917B02EB
S11304F080917C0290917D020E942F0C882309F444
S113050056C020E034E244E759E4C701B6010E9432
S11305101F0E181654F020E030E040E85FE3C701F6
S1130520B6010E942F0C87FF28C06BE173E080E1C5
S113053093E00E943A114AE050E061E070E080E10B
S113054093E00E94261264E073E080E193E00E944D
S11305503A112AE030E040E452E46FE070E080E1D8
S113056093E00E94E1116BEF72E080E193E0FF9071
S1130570EF90DF90CF900C946911A701960160E091
S113058074E284E799E40E94360C0E949E0C609306
S11305907602709377028093780290937902C092E6
S11305A07A02D0927B02E0927C02F0927D02FF906C
S11305B0EF90DF90CF9008958F929F92AF92BF9269
S11305C0CF92DF92EF92FF92CF93C82F4A015B0143
S11305D0C0907E02D0907F02C601DD0CAA0BBB0B3B
S11305E020E832E06901032E000CEE08FF08C80E73
S11305F0D91EEA1EFB1EC9018230910514F1FC01CB
S113060020812223F1F0AC01092E000C660B770B3C
S11306104C155D056E057F05A4F42C130CC00196E2
S1130620CF91FF90EF90DF90CF90BF90AF909F90CD
S11306308F900C94991660E270E00E94BC160196AB
S1130640DBCFC501B401CF91FF90EF90DF90CF9045
S1130650BF90AF909F908F900895CF92DF92EF92CA
S1130660FF926A017B01BC0180E193E00E945E116C
S113067022E030E0B701A60180E193E0FF90EF9023
S1130680DF90CF900C941313409172025091730237
S1130690609174027091750289E092E0DEDF40910E
S11306A06E0250916F0260917002709171028BE042
S11306B092E0D3DF40916A0250916B0260916C0228
S11306C070916D028DE092E0C8DF40916602509116
S11306D0670260916802709169028FE092E0BDDF69
S11306E040917A0250917B0260917C0270917D026C
S11306F081E192E0B2DF80910002811103C065E0E4
S113070072E002C061E072E080E193E00C94791140
S11307104F925F926F927F92AF92BF92CF92DF928D
S1130720EF92FF920F931F93CF93DF93CDB7DEB772
S11307306E970FB6F894DEBF0FBECDBF698B7A8B70
S11307408B8B9C8B2D8B3E8B4F8B588FE98EFA8E27
S11307500B8F1C8F209172023091730240917402AE
S113076050917502A2D720E030E044E552E40E94A3
S11307702A0E0E949E0C6093E0027093E102809323
S1130780E2029093E30220916E0230916F02409155
S11307907002509171026D897E898F89988D85D7F9
S11307A020E030E044E552E40E942A0E0E949E0CB0
S11307B06093EC027093ED028093EE029093EF024B
S11307C020916A0230916B0240916C0250916D024B
S11307D0C801B7016AD720E030E044E552E40E9442
S11307E02A0E0E949E0C6093F8027093F902809383
S11307F0FA029093FB0220916602309167024091C5
S1130800680250916902C601B5014FD720E030E07B
S113081044E552E40E942A0E0E949E0C6093040355
S113082070930503809306039093070300EC12E092
S113083020EE32E03A832983412C512C3201E981A4
S1130840FA8180819181A281B381AC01BD01B7FF9E
S113085007C044275527BA01481B590B6A0B7B0B69
S1130860E981FA8144835583668377834416550668
S11308706606770614F42A013B0161E0181619068E
S11308801A061B060CF060E0D80112968C910E94A7
S1130890C914E981FA813C96FA83E983085F1F4F02
S11308A0E051F34061F6D301C201B595A795979540
S11308B087958093E8029093E902A093EA02B093AB
S11308C0EB028093F4029093F502A093F602B093A6
S11308D0F7028093000390930103A0930203B09363
S11308E0030380930C0390930D03A0930E03B09322
S11308F00F030091760210917702209178023091D3
S1130900790248EC50E060E070E0401B510B620B50
S1130910730B89879A87AB87BC87481759076A077F
S11309207B0724F449875A876B877C87D301C201EC
S113093029853A854B855C85821B930BA40BB50BEB
S11309408D879E87AF87B88B63E172E080E193E087
S11309500E945E112AE030E048EC50E060E070E074
S113096080E193E00E943C126AE172E080E193E04E
S11309700E945E1140917602509177026091780254
S1130980709179022AE030E080E193E00E943C1209
S11309906FE172E080E193E00E945E112AE030E0B2
S11309A049855A856B857C8580E193E00E943C12E1
S11309B06CE272E080E193E00E945E112AE030E094
S11309C04D855E856F85788980E193E00E943C12B5
S11309D069E372E080E193E00E945E112AE030E076
S11309E0B301A20180E193E00E943C1288EC90E004
S11309F0A0E0B0E08D839E83AF83B88719821A820A
S1130A001B821C8229813A814B815C812415350526
S1130A10460557050CF084C000EC12E040EE52E0AD
S1130A205E8F4D8FAD8DBE8D18964D915D916D91FC
S1130A307C911B9714968D919D910D90BC91A02D46
S1130A40840F951FA61FB71F84159505A605B70526
S1130A503CF4ED8DFE8D80879187A287B38714C007
S1130A6084199509A609B709ED8DFE8D80879187B4
S1130A70A287B38761E0D8018C910E94C91460E019
S1130A80F80180810E94C9142D8D3E8D245F3F4F53
S1130A903E8F2D8F085F1F4F2051334019F68981F7
S1130AA09A81AB81BC8129853A854B855C85821707
S1130AB09307A407B5075CF48D819E81AF81B88547
S1130AC00197A109B1098D839E83AF83B8872981DA
S1130AD03A814B815C818D859E85AF85B8892817C5
S1130AE039074A075B0764F02D813E814F815885A1
S1130AF02F5F3F4F4F4F5F4F2D833E834F83588768
S1130B008D819E810E94CB1389819A81AB81BC81A6
S1130B100196A11DB11D89839A83AB83BC8372CFD7
S1130B2029893A894B895C89209372023093730234
S1130B3040937402509375028D899E89AF89B88D54
S1130B4080936E0290936F02A0937002B09371022F
S1130B50298D3A8D4B8D5C8D20936A0230936B0204
S1130B6040936C0250936D02A0926602B0926702A9
S1130B70C0926802D09269026E960FB6F894DEBFF6
S1130B800FBECDBFDF91CF911F910F91FF90EF90DA
S1130B90DF90CF90BF90AF907F906F905F904F9019
S1130BA073CD66EE72E080E193E00E943A114AE070
S1130BB050E062E070E080E193E00E942C126CED62
S1130BC072E080E193E00E94691166EA72E080E1DC
S1130BD093E00E9469116EE872E080E193E00E9464
S1130BE0691169E772E080E193E00E94691164E6AB
S1130BF072E080E193E00E94691164E372E080E1B5
S1130C0093E00E9469116EE172E080E193E00E943A
S1130C10691164E072E080E193E00E9469116FED74
S1130C2071E080E193E00E94691169EB71E080E179
S1130C3093E00C9469112F923F924F925F926F92BE
S1130C407F928F929F92AF92BF92CF92DF92EF9258
S1130C50FF920F931F93CF93DF93CDB7DEB7AA977D
S1130C600FB6F894DEBF0FBECDBF809180028B33E8
S1130C7009F40AC440E050E060E87FEB8EE49CDCB9
S1130C805DD66F3F2FEF72078207920709F47BC08E
S1130C90209180022E3409F076C0C0906202D09078
S1130CA06302E0906402F09065026C157D058E0588
S1130CB09F0519F06DEA71E026C06AE270E080E8F1
S1130CC092E00E94BC16892B09F447C0E0E8F2E0E8
S1130CD019829F012058324091919A3221F0398132
S1130CE039273983F6CF60E070E0C9018F579D4FF3
S1130CF00E94421523D64981242F30E02617370756
S1130D0079F160EA71E080E193E00E943A11409148
S1130D1062025091630260916402709165022AE05C
S1130D2030E080E193E0AA960FB6F894DEBF0FBEE0
S1130D30CDBFDF91CF911F910F91FF90EF90DF9086
S1130D40CF90BF90AF909F908F907F906F905F9067
S1130D504F903F902F900C943C1264E971E0D3CFF4
S1130D608091620290916302A0916402B091650245
S1130D700196A11DB11D8093620290936302A0931A
S1130D806402B093650240E050E060E87FEB87E4E2
S1130D9013DCD4D56B017C0184E0C816D104E104D2
S1130DA0F10454F492E0C916D104E104F1040CF006
S1130DB00EC1F7FE66C025C3AAE5CA16D104E10434
S1130DC0F10409F418C3A4F424E0C216D104E10424
S1130DD0F10409F016C340E050E0BA0180E5ECDB11
S1130DE020E030E04AE754E435D7A8D55EDB09C3F8
S1130DF03BE5C316D104E104F10409F400C34CE556
S1130E00C416D104E104F10409F0FBC240E050E04F
S1130E10BA0185E4D1DB6B017C0140E050E0BA010A
S1130E208AE5CADB4B015C0140E050E0BA0189E588
S1130E30C3DB2B013C0140E050E0BA0188E5BCDB98
S1130E40609372027093730280937402909375029C
S1130E5040926E0250926F02609270027092710220
S1130E6080926A0290926B02A0926C02B0926D0220
S1130E70C0926602D0926702E0926802F092690220
S1130E80C0C240917A0250917B0260917C027091C1
S1130E907D0286E491DB20DB80910002882349F007
S1130EA040916602509167026091680270916902F4
S1130EB003C040E050E0BA0185E47EDBA09100026B
S1130EC0A983A11109C02091660230916702409163
S1130ED068025091690203C020E030E0A901E6D322
S1130EE05B016C01B981BB2349F040916A025091C6
S1130EF06B0260916C0270916D0203C040E050E09F
S1130F00BA018AE559DB209100022D83211109C021
S1130F1020916A0230916B0240916C0250916D02F3
S1130F2003C020E030E0A901C1D369837A838B83B5
S1130F309C833D81332349F040916E0250916F02AE
S1130F40609170027091710203C040E050E0BA01F8
S1130F5089E532DB409100024D83411109C02091A3
S1130F606E0230916F02409170025091710203C081
S1130F7020E030E0A9019AD32B013C018D81882324
S1130F8049F0409172025091730260917402709121
S1130F90750203C040E050E0BA0188E50DDB209102
S1130FA00002211109C02091720230917302409114
S1130FB074025091750203C020E030E0A90176D399
S1130FC0E980FA800B811C81A301920112C2409135
S1130FD07A0250917B0260917C0270917D0286E4DA
S1130FE0EBDA7ADA92E0C916D104E104F10429F0CB
S1130FF080E090E0A0E8BFE304C080E090E0A0E8D7
S1131000BFEB89839A83AB83BC83809100028823DE
S113101049F040916E0250916F026091700270919C
S1131020710203C040E050E0BA0189E5C5DAA0913D
S11310300002AD83A11109C020916E0230916F02AC
S1131040409170025091710203C020E030E0A90188
S11310502DD36D8B7E8B8F8B988FBD81BB2349F0F5
S11310604091720250917302609174027091750202
S113107003C040E050E0BA0188E59EDA2091000206
S11310802D83211109C02091720230917302409185
S113109074025091750203C020E030E0A90106D328
S11310A0698F7A8F8B8F9C8F3D81332349F04091D8
S11310B06E0250916F02609170027091710203C0D0
S11310C040E050E0BA018AE477DA409100024D83AF
S11310D0411109C020916E0230916F02409170025B
S11310E05091710203C020E030E0A901DFD269878A
S11310F07A878B879C878D81882349F0409172027F
S113110050917302609174027091750203C040E0C3
S113111050E0BA0189E450DA20910002211109C09B
S113112020917202309173024091740250917502C1
S113113003C020E030E0A901B9D26D877E878F8794
S1131140988B9B01AC016091720270917302809143
S1131150740290917502A9D24B015C0129853A85EC
S11311604B855C8560916E0270916F028091700274
S1131170909171029AD26B017C01A5019401C50181
S1131180B40168D52B013C01A7019601C701B60142
S113119061D59B01AC01C301B20188D2C8D5698B6A
S11311A07A8B8B8B9C8BA5019401C701B601F1D27C
S11311B02B013C0120E030E0A90151D387FF09C095
S11311C02BED3FE049EC50E4C301B2016FD22B0197
S11311D03C012D853E854F855889698D7A8D8B8D8F
S11311E09C8D63D26B017C0129853A854B855C8596
S11311F06D897E898F89988D58D2A7019601C9D2AD
S11312006B017C0120E030E0A90129D387FF09C0EC
S11312102BED3FE049EC50E4C701B60147D26B0126
S11312207C01A3019201C701B6013FD24B015C01CD
S113123020E030E0A90169817A818B819C81FFD40F
S1131240181694F420E030E0A901C501B40107D3D5
S113125087FF0AC02BED3FE049EC50E4C701B6011B
S113126025D26B017C011BC020E030E0A90169811B
S11312707A818B819C81F3D287FF11C020E030E01A
S1131280A901C501B401DBD418164CF42BED3FE0E1
S113129049EC50E4C301B20109D22B013C01A30182
S11312A09201C701B60101D269837A838B839C833F
S11312B020E030E0A901C3D429813A814B815C81CB
S11312C018160CF0505869897A898B899C89C2D484
S11312D020E030E040E251E4BDD4AED22FD31B0174
S11312E01AA619A6CB01770FAA0BBB0B8DA39EA33D
S11312F0AFA3B8A7A0906602B0906702C09068023E
S1131300D090690280916A0290916B02A0916C0264
S1131310B0916D028D8F9E8FAF8FB8A3A9A5BAA58A
S1131320A215B3050CF059C0BD01BB0F880B990B76
S113133038D36D837E838F8398876DA17EA18FA11F
S113134098A52FD39B01AC016D817E818F819885F7
S11313508DD229813A814B815C817CD4A301920195
S1131360A5D16D837E838F8398877DD269A37AA369
S11313708BA39CA36D817E818F819885CED49B01A4
S1131380AC0169897A898B899C8964D429853A85D9
S11313904B855C858BD16D837E838F83988729A150
S11313A03AA14BA15CA169897A898B899C8952D421
S11313B02D853E854F85588979D1ED8CFE8C0F8D16
S11313C018A12D813E814F815885A2D929A53AA51E
S11313D02F5F3F4F3AA729A78DCFED8CFE8C0F8D41
S11313E018A12D893E894F89588D698D7A8D8B8DF1
S11313F09C8D8ED906C081E08093000202C01092B9
S1131400000240E050E060E87FEB8DE4D5D896D24E
S11314106436710581059105F1F062377105810526
S1131420910591F5AA960FB6F894DEBF0FBECDBF15
S1131430DF91CF911F910F91FF90EF90DF90CF90AC
S1131440BF90AF909F908F907F906F905F904F90E0
S11314503F902F9019C9AA960FB6F894DEBF0FBE1D
S1131460CDBFDF91CF911F910F91FF90EF90DF904F
S1131470CF90BF90AF909F908F907F906F905F9030
S11314804F903F902F908DCBAA960FB6F894DEBF65
S11314900FBECDBFDF91CF911F910F91FF90EF90C1
S11314A0DF90CF90BF90AF909F908F907F906F9080
S11314B05F904F903F902F90089510927F0210926A
S11314C07E0262E971E080E193E0D4C6CF93DF93BA
S11314D086E390E09093C1028093C00287E390E09A
S11314E09093C3028093C20286E290E09093C50277
S11314F08093C40283E090E09093C7028093C60275
S11315008CE390E09093C9028093C8028DE390E04D
S11315109093CB028093CA0288E390E09093CD022B
S11315208093CC028EE090E09093CF028093CE0221
S11315308EE290E09093D1028093D00280E390E019
S11315409093D3028093D2028EE390E09093D502DD
S11315508093D40282E190E09093D7028093D602E4
S11315608AE190E09093D9028093D8028CE190E0D4
S11315709093DB028093DA0288E190E09093DD029D
S11315808093DC0282E290E09093DF028093DE029B
S1131590C0ECD2E061E088810E948D1461E08A8110
S11315A00E948D1461E08C810E948D14289682E043
S11315B0C03ED80779F7DF91CF910895CF93DF9399
S11315C0C0ECD2E060E08C810E94C914289682E0CD
S11315D0C03ED807B9F7DF91CF91089526E040E0E7
S11315E051EE60E070E080E193E002D56FDFE6DF6A
S11315F04BD8D7DA109272021092730210927402CE
S11316001092750210926E0210926F021092700284
S11316101092710210926A0210926B0210926C0284
S113162010926D0210926602109267021092680284
S11316301092690260E070E08AE794E40E946C0210
S11316403CCFCF9380E193E0CBD3181619065CF519
S113165080E193E0DFD3C82F682F80E193E02FD699
S113166080917E0290917F028F3391055CF49C01FE
S11316702F5F3F4F30937F0220937E02FC01E0589E
S1131680FD4FC083CA30F1F6E0917E02F0917F02F3
S1131690E058FD4F10826FE871E080E193E0EAD5F5
S11316A0CADA0BDFCFCFCF9108955058BB27AA27B2
S11316B00ED063C22CD230F031D220F031F49F3FEF
S11316C011F41EF4FCC10EF4E095E7FBC9C1E92F47
S11316D076D280F3BA17620773078407950718F068
S11316E071F49EF5A5C20EF4E0950B2EBA2FA02D31
S11316F00B01B90190010C01CA01A0011124FF27BB
S1131700591B99F0593F50F4503E68F11A16F040B5
S1131710A22F232F342F4427585FF3CF46953795B4
S11317202795A795F0405395C9F77EF41F16BA0B79
S1131730620B730B840BBAF09150A1F0FF0FBB1F27
S1131740661F771F881FC2F70EC0BA0F621F731F70
S1131750841F48F4879577956795B795F7959E3FCD
S113176008F0B3CF9395880F08F09927EE0F97955B
S113177087950895CCD158F080E891E009F49EEF64
S1131780CDD128F040E851E059F45EEF09C097C18B
S11317904FC2E92FE07813D268F3092E052AC1F36A
S11317A0261737074807590738F00E2E07F8E025A3
S11317B069F0E025E0640AC0EF6307F8009407FAD3
S11317C0DB01B9019D01DC01CA01AD01EF935DD0DC
S11317D0D4D10AD05F91552331F02BED3FE049E499
S11317E050FD49EC63CF0895DF93DD27B92FBF7710
S11317F040E85FE31616170648075B0710F4D92F75
S113180022D29F938F937F936F93CFD2E4EEF0E035
S113181059D1B3D12F913F914F915F9127D2DD23BD
S113182049F09058A2EA2AED3FE049EC5FE3D07812
S11318305D274DDFDF91A1C1E4D180F09F3740F4F3
S113184091110EF4F6C160E070E080E89FE3089522
S113185026F01B16611D711D811D08C122C1DCD03B
S113186008F481E0089562D1E39598C10CD085C154
S113187055D140F04CD130F021F45F3F19F0F0C065
S11318805111D7C11CC19BD198F39923C9F3552396
S1131890B1F3951B550BBB27AA276217730784075F
S11318A038F09F5F5F4F220F331F441FAA1FA9F315
S11318B033D00E2E3AF0E0E830D091505040E69507
S11318C0001CCAF729D0FE2F27D0660F771F881F68
S11318D0BB1F261737074807AB07B0E809F0BB0B57
S11318E0802DBF01FF2793585F4F2AF09E3F51057B
S11318F068F0B6C09EC15F3FECF3983EDCF386957A
S113190077956795B795F7959F5FC9F7880F911DF0
S11319109695879597F90895E1E0660F771F881FDC
S1131920BB1F621773078407BA0720F0621B730B8F
S1131930840BBA0BEE1F88F7E095089504D06894E1
S1131940B11177C1089543D188F09F5790F0B92F12
S11319509927B751A0F0D1F0660F771F881F991F00
S11319601AF0BA95C9F712C0B13081F061D1B1E073
S113197008955EC1672F782F8827B85F39F0B93F83
S1131980CCF3869577956795B395D9F73EF4909502
S11319908095709561957F4F8F4F9F4F0895E89480
S11319A009C097FB3EF490958095709561957F4FA3
S11319B08F4F9F4F9923A9F0F92F96E9BB27939551
S11319C0F695879577956795B795F111F8CFFAF461
S11319D0BB0F11F460FF1BC06F5F7F4F8F4F9F4F92
S11319E016C0882311F096E911C0772321F09EE8F0
S11319F0872F762F05C0662371F096E8862F70E056
S1131A0060E02AF09A95660F771F881FDAF7880F2F
S1131A109695879597F90895990F0008550FAA0B85
S1131A20E0E8FEEF16161706E807F907C0F01216ED
S1131A301306E407F50798F0621B730B840B950BF0
S1131A4039F40A2661F0232B242B252B21F4089545
S1131A500A2609F4A140A6958FEF811D811D0895E2
S1131A6097F99F6780E870E060E00895882371F437
S1131A70772321F09850872B762F07C0662311F423
S1131A8099270DC09051862B70E060E02AF09A955A
S1131A90660F771F881FDAF7880F9695879597F951
S1131AA008959F3F31F0915020F48795779567957D
S1131AB0B795880F911D9695879597F908959FEF8F
S1131AC080EC0895DF93CF931F930F93FF92EF92CF
S1131AD0DF927B018C01689405C0DA2EEF01C6D039
S1131AE0FE01E894A5912591359145915591AEF368
S1131AF0EF01EDDDFE019701A801DA9479F7DF909B
S1131B00EF90FF900F911F91CF91DF9108950024E2
S1131B100A941616170618060906089500240A944E
S1131B2012161306140605060895C9CF50D0E8F31B
S1131B30E894E0E0BB279F57F0F02AED3FE049EC42
S1131B4006C0EE0FBB0F661F771F881F28F0B23A3E
S1131B5062077307840728F0B25A620B730B840B75
S1131B60E3959A9572F7803830F49A95BB0F661F07
S1131B70771F881FD2F7904896CF092E0394000C44
S1131B8011F4882352F0BB0F40F4BF2B11F460FF13
S1131B9004C06F5F7F4F8F4F9F4F0895EF93E0FF17
S1131BA006C0A2EA2AED3FE049EC5FEB90DDE5DFF9
S1131BB00F90039401FC9058E1E1F1E000C157FD5E
S1131BC09058440F551F59F05F3F71F04795880FA7
S1131BD097FB991F61F09F3F79F08795089512163E
S1131BE013061406551FF2CF4695F1DF08C01616EA
S1131BF017061806991FF1CF86957105610508949B
S1131C000895E5DFA0F0BEE7B91788F4BB279F3835
S1131C1060F41616B11D672F782F8827985FF7CFC9
S1131C20869577956795B11D93959639C8F3089570
S1131C30E894BB2766277727CB0197F90895ECDE54
S1131C4008F48FEF08959B01AC0160E070E080E838
S1131C509FE30CCE0BD091CF5ADF28F05FDF18F052
S1131C60952309F0FDCE2BCF1124E3CFA8DFA0F3F9
S1131C70959FD1F3950F50E0551F629FF001729F1D
S1131C80BB27F00DB11D639FAA27F00DB11DAA1F3C
S1131C90649F6627B00DA11D661F829F2227B00D89
S1131CA0A11D621F739FB00DA11D621F839FA00D14
S1131CB0611D221F749F3327A00D611D231F849F64
S1131CC0600D211D822F762F6A2F11249F575040BB
S1131CD08AF0E1F088234AF0EE0FFF1FBB1F661F56
S1131CE0771F881F91505040A9F79E3F510570F00F
S1131CF0B7CE9FCF5F3FECF3983EDCF386957795A4
S1131D006795B795F795E7959F5FC1F7FE2B880F09
S1131D10911D9695879597F908959F9307DF0F90E6
S1131D2007FCEE5F3BCF11F40EF4C9CEBACE4FDF01
S1131D30D0F39923D9F3CEF39F57550B87FF38D0AF
S1131D400024A0E640EA900180585695979528F41F
S1131D50805C660F771F881F20F026173707480717
S1131D6030F4621B730B840B202931294A2BA6956E
S1131D7017940794202531254A2758F7660F771FB3
S1131D80881F20F026173707480730F4620B730BBF
S1131D90840B200D311D411DA09581F7B901842FBD
S1131DA09158880F9695879508959B01AC0152CF61
S1131DB091505040660F771F881FD2F708959F9364
S1131DC08F937F936F93FF93EF939B01AC0142DF5B
S1131DD0EF91FF9177DE2F913F914F915F913ACF31
S1131DE0FC01918D228D892F90E0805C9F4F821B96
S1131DF091098F7399270895FC01918D828D98170D
S1131E0031F0828DE80FF11D858D90E008958FEFFC
S1131E109FEF0895FC01918D828D981761F0828D5A
S1131E20DF01A80FB11D5D968C91928D9F5F9F730A
S1131E30928F90E008958FEF9FEF0895FC01538DEA
S1131E40448D252F30E0842F90E0821B930B541790
S1131E5010F0CF960895019708958AEB90E1892BAD
S1131E6039F080E090E0892B19F084D1811125C0EC
S1131E7080E090E0892B41F080E090E0892B21F014
S1131E800E94000081111CC080E090E0892B41F089
S1131E9080E090E0892B21F00E940000811113C0A2
S1131EA080E090E0892BA1F080E090E0892B81F024
S1131EB00E94000081110AC008950E940000D8CF3A
S1131EC00E940000E1CF0E940000EACF0C940000C1
S1131ED00895FC01848DDF01A80FB11DA35ABF4FE3
S1131EE02C91848D90E001968F739927848FA68915
S1131EF0B7892C93A089B1898C91837080648C9369
S1131F00938D848D981306C00288F389E02D808117
S1131F108F7D80830895EF92FF920F931F93CF9349
S1131F20DF93EC0181E0888F9B8D8C8D981305C025
S1131F30E889F989808185FD25C0F62E0B8D10E096
S1131F400F5F1F4F0F731127E02E8C8DE8120BC00B
S1131F500FB607FCFACFE889F989808185FFF5CFB0
S1131F60CE01B7DFF2CF8B8DFE01E80FF11DE35AEE
S1131F70FF4FF0829FB7F8940B8FEA89FB89808129
S1131F8080620AC09FB7F894EE89FF896083E8896C
S1131F90F98980818370806480839FBF81E090E0B1
S1131FA0DF91CF911F910F91FF90EF900895CF9300
S1131FB0DF93EC01888D8823C1F0EA89FB89808155
S1131FC085FD05C0A889B9898C9186FD0EC00FB620
S1131FD007FCF5CF808185FFF2CFA889B9898C9160
S1131FE085FFEDCFCE0175DFE8CFDF91CF91089566
S1131FF0CF92DF92EF92FF921F93CF93DF93EC0186
S11320006A017B01122FE889F98982E080834115F6
S1132010514E61057105A9F060E079E08DE390E02F
S1132020A7019601E9D4DA01C9010197A109B1090F
S1132030B695A795979587959C01211580E138075A
S1132040A0F0E889F989108260E874E88EE190E0F4
S1132050A7019601D1D4DA01C9010197A109B109F7
S1132060B695A795979587959C01EC85FD8530835A
S1132070EE85FF852083188EEC89FD891083EA891B
S1132080FB89808180618083EA89FB898081886003
S11320908083EA89FB89808180688083EA89FB895F
S11320A080818F7D8083DF91CF911F91FF90EF908E
S11320B0DF90CF9008951F920F920FB60F921124C4
S11320C00BB60F922F938F939F93EF93FF93E0910F
S11320D02003F09121038081E0912603F0912703EE
S11320E082FD12C09081809129038F5F8F732091AC
S11320F02A03821751F0E0912903F0E0E05FFC4FDE
S1132100958F8093290301C08081FF91EF919F9166
S11321108F912F910F900BBE0F900FBE0F901F90B9
S113212018951F920F920FB60F9211240BB60F92AF
S11321302F933F934F935F936F937F938F939F93CB
S1132140AF93BF93EF93FF9380E193E0C2DEFF91DF
S1132150EF91BF91AF919F918F917F916F915F911B
S11321604F913F912F910F900BBE0F900FBE0F9088
S11321701F90189580E193E033DE21E0892B09F468
S113218020E0822F0895E0E1F3E01382128288EECA
S113219093E0A0E0B0E084839583A683B78384E4CE
S11321A092E09183808385EC90E09587848784EC2A
S11321B090E09787868780EC90E0918B808B81EC10
S11321C090E0938B828B82EC90E0958B848B86ECF1
S11321D090E0978B868B118E128E138E148E089539
S11321E00895E4D2FDDFFAD9CDE2DFE02ADA2097C0
S11321F0E9F333DEFBCFCF92DF92EF92FF920F939E
S11322001F93CF93DF936C017A018B01C0E0D0E080
S1132210CE15DF0581F0D8016D918D01D601ED91C8
S1132220FC910190F081E02DC6011995892B11F0E4
S11322302196EECF7E01C701DF91CF911F910F91BF
S1132240FF90EF90DF90CF9008956115710579F0BC
S1132250FB0101900020E9F73197AF01461B570BB2
S1132260DC01ED91FC910280F381E02D199480E072
S113227090E00895EF92FF920F931F93CF93DF9313
S11322808C017B01C0E0D0E0F701EC0FFD1F6491ED
S1132290662361F0D801ED91FC910190F081E02D6D
S11322A0C8011995892B11F02196EECFCE01DF914B
S11322B0CF911F910F91FF90EF900895C6CFDC014D
S11322C0ED91FC910190F081E02D199462E572E0AA
S11322D0BCCF0F931F93CF93DF93EC01CBDF8C0123
S11322E0CE01F4DF800F911FDF91CF911F910F91E9
S11322F008950F931F93CF93DF93EC01A6DF8C0116
S1132300CE01E4DF800F911FDF91CF911F910F91D8
S113231008958F929F92AF92BF92EF92FF920F9384
S11323201F93CF93DF93CDB7DEB7A1970FB6F89481
S1132330DEBF0FBECDBF7C01FA01CB0119A2223052
S113234008F42AE08E010F5D1F4F822E912CA12CE0
S1132350B12CBF01A50194014FD3F901CA01015069
S113236011096A3010F4605D01C0695CD8016C9396
S1132370232B242B252B69F7B801C70166DFA1960F
S11323800FB6F894DEBF0FBECDBFDF91CF911F9182
S11323900F91FF90EF90BF90AF909F908F90089512
S11323A02115310541F4DC01ED91FC910190F0819E
S11323B0E02D642F1994ADCF9A01AB0160E070E079
S11323C0EFCFCF92DF92EF92FF920F931F93CF93B1
S11323D0DF932115310581F4DC01ED91FC9101902D
S11323E0F081E02D642FDF91CF911F910F91FF9029
S11323F0EF90DF90CF9019942A303105F1F477FFF4
S11324001BC06A017B01EC016DE259DF8C0144279A
S11324105527BA014C195D096E097F092AE0CE01DE
S113242078DF800F911FDF91CF911F910F91FF9063
S1132430EF90DF90CF9008952AE0DF91CF911F9124
S11324400F91FF90EF90DF90CF9063CF9A01AB0193
S1132450770F660B770BB5CF0F931F93CF93DF9353
S1132460EC01F4DF8C01CE0131DF800F911FDF918D
S1132470CF911F910F9108950F931F93CF93DF93E3
S1132480EC019FDF8C01CE0121DF800F911FDF91D2
S1132490CF911F910F9108957F928F929F92AF9247
S11324A0BF92CF92DF92EF92FF920F931F93CF933D
S11324B0DF938C016A017B01722E9A01AB01C70183
S11324C0B60196D2882319F065E572E024C046016E
S11324D05701E894B7F82FEF3FEF4FE75FE7C501E7
S11324E0B40186D281110CC02FEF3FEF4FE75FE7B5
S11324F0C501B401B4D918161CF469E572E00BC027
S11325002FEF3FEF4FE75FE4C701B60198DB1816E2
S11325108CF46DE572E0C801DF91CF911F910F91AA
S1132520FF90EF90DF90CF90BF90AF909F908F90EF
S11325307F908BCE2FEF3FEF4FE75FECC701B601E3
S11325408ED987FDE6CF20E030E0A901C701B601AE
S113255086D987FF09C06DE2C801B1DEEC01F7FA44
S1132560F094F7F8F09402C0C0E0D0E0B12C60E041
S113257070E080E09FE37B1439F020E030E040E23B
S113258051E474D9B394F7CFA70196018FD86B01A6
S11325907C01D9D94B015C012AE0AB01BC01C80123
S11325A0B8DEC80FD91F772079F1C501B401F7D976
S11325B09B01AC01C701B60178D86B017C016EE2C6
S11325C0C8017DDEC80FD91F20E030E040E251E4AD
S11325D0C701B6013FDB4B015C01B5D96B017C013E
S11325E04AE050E0C801E8DEC80FD91FB60180E018
S11325F090E0D5D99B01AC01C501B40156D86B015B
S11326007C017A947110E0CFCE01DF91CF911F91BC
S11326100F91FF90EF90DF90CF90BF90AF909F907D
S11326208F907F9008950F931F93CF93DF93EC01C6
S113263033DF8C01CE014ADE800F911FDF91CF91F1
S11326401F910F9108951F920F920FB60F921124AC
S11326502F933F938F939F93AF93BF938091AE0338
S11326609091AF03A091B003B091B1033091AD0349
S113267023E0230F2D3720F40196A11DB11D05C0C1
S113268026E8230F0296A11DB11D2093AD0380936C
S1132690AE039093AF03A093B003B093B1038091C2
S11326A0B2039091B303A091B403B091B503019622
S11326B0A11DB11D8093B2039093B303A093B403FF
S11326C0B093B503BF91AF919F918F913F912F919B
S11326D00F900FBE0F901F9018953FB7F8948091FC
S11326E0B2039091B303A091B403B091B50326B59E
S11326F0A89B05C02F3F19F00196A11DB11D3FBF36
S1132700BA2FA92F982F8827820F911DA11DB11DC3
S1132710BC01CD0142E0660F771F881F991F4A95BF
S1132720D1F708958F929F92AF92BF92CF92DF928A
S1132730EF92FF926B017C01D0DF4B015C01C1146D
S1132740D104E104F104F1F052D1C7DFDC01CB0183
S113275088199909AA09BB09883E9340A105B105C6
S113276070F321E0C21AD108E108F10888EE880E5E
S113277083E0981EA11CB11CC114D104E104F1042E
S113278021F7DDCFFF90EF90DF90CF90BF90AF9017
S11327909F908F9008958230910538F0880F991F8B
S11327A0880F991F05970197F1F70895789484B5D8
S11327B0826084BD84B5816084BD85B5826085BD39
S11327C085B5816085BDEEE6F0E08081816080831F
S11327D0E1E8F0E010828081826080838081816002
S11327E08083E0E8F0E0808181608083E1EBF0E0C9
S11327F0808184608083E0EBF0E08081816080836D
S1132800E1E9F0E08081826080838081816080835F
S1132810E0E9F0E0808181608083E1EAF0E080819A
S113282082608083808181608083E0EAF0E080813F
S113283081608083E1E2F1E0808182608083808135
S113284081608083E0E2F1E0808181608083EAE757
S1132850F0E08081846080838081826080838081D5
S1132860816080838081806880831092C100089594
S113287090E0FC013197E231F10508F04DC0882762
S1132880E856FF4F8F4FF6C0809180008F7703C0CA
S1132890809180008F7D80938000089580918000D6
S11328A0877FF9CF84B58F7702C084B58F7D84BDCF
S11328B008958091B0008F7703C08091B0008F7D20
S11328C08093B0000895809190008F7707C0809125
S11328D090008F7D03C080919000877F809390004B
S11328E008958091A0008F7707C08091A0008F7D0C
S11328F003C08091A000877F8093A00008958091F9
S113290020018F7707C0809120018F7D03C08091C3
S11329102001877F809320010895CF93DF9390E077
S1132920FC01EC57FC4F2491FC01E653FC4F8491CD
S1132930882361F190E0880F991FFC01E65DFB4F4D
S1132940C591D491FC01E05FFB4FA591B491611155
S113295009C09FB7F8948881209582238883EC91DD
S11329602E230BC0623061F49FB7F8948881322F14
S1132970309583238883EC912E2B2C939FBF06C024
S11329808FB7F894E8812E2B28838FBFDF91CF91E6
S113299008951F93CF93DF93282F30E0F901E25C71
S11329A0FC4F8491F901EC57FC4FD491F901E653A3
S11329B0FC4FC491CC23B9F0162F811159DFEC2FB1
S11329C0F0E0EE0FFF1FE05FFB4FA591B4919FB7BE
S11329D0F894111104C08C91D095D82302C0EC91C5
S11329E0DE2BDC939FBFDF91CF911F910895089553
S11329F013D8880B990B0895A1E21A2EAA1BBB1BAE
S1132A00FD010DC0AA1FBB1FEE1FFF1FA217B307B6
S1132A10E407F50720F0A21BB30BE40BF50B661FCC
S1132A20771F881F991F1A9469F760957095809590
S1132A3090959B01AC01BD01CF010895052E97FB34
S1132A4016F400940FD057FD05D0D6DF07FC02D052
S1132A5046F408C050954095309521953F4F4F4F0F
S1132A605F4F089590958095709561957F4F8F4F36
S1132A709F4F0895EE0FFF1F881F8BBF0790F6919D
S1132A80E02D19948F929F92AF92BF92CF92DF92D2
S1132A90EF92FF920F931F93CF93DF93EC016B019F
S1132AA06115710519F0FB01918380837E01FFEFAD
S1132AB0EF1AFF0A0881802F90E03ED1892B11F094
S1132AC0E701F4CF0D3239F47E0182E0E80EF11C07
S1132AD0098111E008C00B3229F47E0192E0E90E6D
S1132AE0F11C098110E0E701219743E050E06CE517
S1132AF071E0CE0129D1892BB9F4239645E050E049
S1132B0067E571E0CE0120D1892B09F42596C11423
S1132B10D10419F0F601D183C0831111F4C060E02F
S1132B2070E080E89FE7F8C043E050E064E571E0BE
S1132B30CE010AD1892B59F4C114D10409F4E8C097
S1132B40F2E0EF0EF11CF601F182E082E1C020E038
S1132B5030E0A901C0E0D0E0F70160EDA62EA00EA0
S1132B6089E08A1528F1912F9260B92E812F8870FF
S1132B7012FF04C0811123C0219621C08111219725
S1132B80A5E0B0E007D1DC01CB01880F991FAA1F93
S1132B90BB1F9C01AD012A0D311D411D511D28395A
S1132BA089E93807480789E1580748F0166006C0E4
S1132BB09EEFA9120AC013FD40C01860B12E8FEF1A
S1132BC0E81AF80A00811B2DC7CF802F8F7D85342A
S1132BD0A1F580818D3211F4106106C08B3221F091
S1132BE0319661E070E004C08181329662E070E069
S1132BF080538A3018F0E61BF70B1FC060E070E0CA
S1132C0060389CE079075CF4DB01AA0FBB1FAA0FB4
S1132C10BB1F6A0F7B1F660F771F680F711D3196EC
S1132C20DF0111978C9180538A3050F314FF03C055
S1132C30719561957109C60FD71F11FF08C0C114A2
S1132C40D10429F0CF010197F60191838083CA0151
S1132C50B9010E94CF0C212F2370233019F04B01AE
S1132C605C0106C04B015C01B7FAB094B7F8B094AC
S1132C7020E030E0A901C501B4010E942F0C882393
S1132C8009F43EC0D7FF06C0D195C195D10903E729
S1132C9011E002C00BE811E06801F8E1CF1AD10895
S1132CA090E2E92EF12CCE15DF0574F0F8012591A0
S1132CB0359145915491C501B4010E942A0E4B01EE
S1132CC05C01CE19DF09EFCF04501109F594E794A4
S1132CD00C151D0541F78A2D880F8B2D881F8F3FFA
S1132CE049F020E030E0A901C501B4010E942F0C95
S1132CF0811106C082E290E09093B7038093B603FB
S1132D00C501B40109C060E070E080E89FEF04C031
S1132D1060E070E080EC9FE7DF91CF911F910F910D
S1132D20FF90EF90DF90CF90BF90AF909F908F90E7
S1132D30089566277727A6CE911129C0803219F00D
S1132D4089508550D0F70895FB01DC014150504073
S1132D5088F08D9181341CF08B350CF4805E659184
S1132D6061341CF06B350CF4605E861B611171F3E9
S1132D70990B0895881BFCCFFC018191861721F0E3
S1132D808823D9F7992708953197CF010895992772
S1132D908827089509D0A59F900DB49F900DA49FF6
S1132DA0800D911D11240895A29FB001B39FC0010D
S1132DB0A39F700D811D1124911DB29F700D811D63
S10D2DC01124911D0895F894FFCF2B
S1132DCA014142530052454C00580059005A0045EB
S1132DDA00460053544152542000544F502000617D
S1132DEA6363656C20756E74696C20006465636541
S1132DFA6C2061667465722000746F74616C2000C3
S1132E0A000000008B0FFB101E0FD70FF00E0A0FE5
S1132E1AFC0E0D0A006E616E00696E66006F7666BE
S1052E2A0000A2
S9030000FC
